{
  "contractName": "GAME_SYMBOL",
  "abi": [
    {
      "constant": true,
      "inputs": [],
      "name": "name",
      "outputs": [
        {
          "name": "",
          "type": "bytes"
        }
      ],
      "payable": false,
      "stateMutability": "view",
      "type": "function"
    },
    {
      "constant": false,
      "inputs": [],
      "name": "unpause",
      "outputs": [],
      "payable": false,
      "stateMutability": "nonpayable",
      "type": "function"
    },
    {
      "constant": true,
      "inputs": [],
      "name": "paused",
      "outputs": [
        {
          "name": "",
          "type": "bool"
        }
      ],
      "payable": false,
      "stateMutability": "view",
      "type": "function"
    },
    {
      "constant": false,
      "inputs": [],
      "name": "renounceOwnership",
      "outputs": [],
      "payable": false,
      "stateMutability": "nonpayable",
      "type": "function"
    },
    {
      "constant": false,
      "inputs": [],
      "name": "pause",
      "outputs": [],
      "payable": false,
      "stateMutability": "nonpayable",
      "type": "function"
    },
    {
      "constant": true,
      "inputs": [],
      "name": "owner",
      "outputs": [
        {
          "name": "",
          "type": "address"
        }
      ],
      "payable": false,
      "stateMutability": "view",
      "type": "function"
    },
    {
      "constant": false,
      "inputs": [
        {
          "name": "_newOwner",
          "type": "address"
        }
      ],
      "name": "transferOwnership",
      "outputs": [],
      "payable": false,
      "stateMutability": "nonpayable",
      "type": "function"
    },
    {
      "inputs": [],
      "payable": false,
      "stateMutability": "nonpayable",
      "type": "constructor"
    },
    {
      "anonymous": false,
      "inputs": [],
      "name": "Pause",
      "type": "event"
    },
    {
      "anonymous": false,
      "inputs": [],
      "name": "Unpause",
      "type": "event"
    },
    {
      "anonymous": false,
      "inputs": [
        {
          "indexed": true,
          "name": "previousOwner",
          "type": "address"
        }
      ],
      "name": "OwnershipRenounced",
      "type": "event"
    },
    {
      "anonymous": false,
      "inputs": [
        {
          "indexed": true,
          "name": "previousOwner",
          "type": "address"
        },
        {
          "indexed": true,
          "name": "newOwner",
          "type": "address"
        }
      ],
      "name": "OwnershipTransferred",
      "type": "event"
    },
    {
      "constant": false,
      "inputs": [
        {
          "name": "addr",
          "type": "address"
        },
        {
          "name": "v",
          "type": "uint256"
        }
      ],
      "name": "addScore",
      "outputs": [
        {
          "name": "",
          "type": "uint256"
        }
      ],
      "payable": false,
      "stateMutability": "nonpayable",
      "type": "function"
    },
    {
      "constant": true,
      "inputs": [],
      "name": "getScore",
      "outputs": [
        {
          "name": "",
          "type": "uint256"
        }
      ],
      "payable": false,
      "stateMutability": "view",
      "type": "function"
    }
  ],
  "bytecode": "0x60806040526000805460a060020a60ff021916905534801561002057600080fd5b5060008054600160a060020a0319163317905560408051808201909152600b8082527f47414d455f53594d424f4c00000000000000000000000000000000000000000060209092019182526100779160019161007d565b50610118565b828054600181600116156101000203166002900490600052602060002090601f016020900481019282601f106100be57805160ff19168380011785556100eb565b828001600101855582156100eb579182015b828111156100eb5782518255916020019190600101906100d0565b506100f79291506100fb565b5090565b61011591905b808211156100f75760008155600101610101565b90565b6105d1806101276000396000f3006080604052600436106100985763ffffffff7c010000000000000000000000000000000000000000000000000000000060003504166306fdde03811461009d5780633f4ba83a146101275780635c975abb1461013e578063715018a6146101675780638456cb591461017c5780638da5cb5b14610191578063afd82067146101c2578063d119db4c146101e9578063f2fde38b1461020d575b600080fd5b3480156100a957600080fd5b506100b261022e565b6040805160208082528351818301528351919283929083019185019080838360005b838110156100ec5781810151838201526020016100d4565b50505050905090810190601f1680156101195780820380516001836020036101000a031916815260200191505b509250505060405180910390f35b34801561013357600080fd5b5061013c6102bb565b005b34801561014a57600080fd5b50610153610342565b604080519115158252519081900360200190f35b34801561017357600080fd5b5061013c610363565b34801561018857600080fd5b5061013c6103cf565b34801561019d57600080fd5b506101a661046c565b60408051600160a060020a039092168252519081900360200190f35b3480156101ce57600080fd5b506101d761047b565b60408051918252519081900360200190f35b3480156101f557600080fd5b506101d7600160a060020a036004351660243561048e565b34801561021957600080fd5b5061013c600160a060020a03600435166104f2565b60018054604080516020600284861615610100026000190190941693909304601f810184900484028201840190925281815292918301828280156102b35780601f10610288576101008083540402835291602001916102b3565b820191906000526020600020905b81548152906001019060200180831161029657829003601f168201915b505050505081565b600054600160a060020a031633146102d257600080fd5b60005474010000000000000000000000000000000000000000900460ff1615156102fb57600080fd5b6000805474ff0000000000000000000000000000000000000000191681556040517f7805862f689e2f13df9f062ff482ad3ad112aca9e0847911ed832e158c525b339190a1565b60005474010000000000000000000000000000000000000000900460ff1681565b600054600160a060020a0316331461037a57600080fd5b60008054604051600160a060020a03909116917ff8df31144d9c2f0f6b59d69b8b98abd5459d07f2742c4df920b25aae33c6482091a26000805473ffffffffffffffffffffffffffffffffffffffff19169055565b600054600160a060020a031633146103e657600080fd5b60005474010000000000000000000000000000000000000000900460ff161561040e57600080fd5b6000805474ff00000000000000000000000000000000000000001916740100000000000000000000000000000000000000001781556040517f6985a02210a168e66602d3235cb6db0e70f92b3ba4d376a33c0f3d9434bff6259190a1565b600054600160a060020a031681565b3360009081526002602052604090205490565b60008054600160a060020a031633146104a657600080fd5b600160a060020a0383166000908152600260205260409020546104cf908363ffffffff61051516565b600160a060020a0384166000908152600260205260409020819055905092915050565b600054600160a060020a0316331461050957600080fd5b61051281610528565b50565b8181018281101561052257fe5b92915050565b600160a060020a038116151561053d57600080fd5b60008054604051600160a060020a03808516939216917f8be0079c531659141344cd1fd0a4f28419497f9722a3daafe3b4186f6b6457e091a36000805473ffffffffffffffffffffffffffffffffffffffff1916600160a060020a03929092169190911790555600a165627a7a723058208c5f39ba2342ad04be7eb2437b16303601d75b64cf25945c735ff282a07903a80029",
  "source": "pragma solidity ^0.4.24;\n\nimport \"./Pausable.sol\";\nimport \"./SafeMath.sol\";\n\ncontract GAME_SYMBOL is Pausable {\n  using SafeMath for uint256;\n  bytes public name;\n  mapping (address => uint256) private scores;\n\n  constructor() public {\n    name = \"GAME_SYMBOL\";\n  }\n\n  /** \n   * 添加积分\n   */\n  function addScore(address addr, uint256 v) public onlyOwner returns(uint256) {\n    scores[addr] = scores[addr].add(v);\n    return scores[addr];\n  }\n\n  /**\n   * 获取积分\n   */\n  function getScore() public view returns(uint256) {\n    return scores[msg.sender];\n  }\n}",
  "sourcePath": "test_contract/game.sol",
  "compiler": {
    "name": "solc",
    "version": "0.4.24+commit.e67f0147.Emscripten.clang"
  },
  "schemaVersion": "2.0.1",
  "updatedAt": "2018-10-31T08:58:47.501Z"
}